:1000000000308A0075280000FF00030E8301A10064
:100010000A08A0008A010408A2007708A300780853
:10002000A4007908A5007A08A600831383120B1E8A
:100030001B288B1838288C308400801E21288C1AAD
:100040003B288C308400801C27288C183E282208EE
:1000500084002308F7002408F8002508F900260882
:10006000FA0020088A00210E8300FF0E7F0E09008F
:100070008A110A1241288A110A1247288A110A1283
:1000800057280130A8008B108A110A1227288312E2
:100090008C128C101A08AA00A708031D52280130E0
:1000A000A7005328A7018C128A110A122728831649
:1000B0001E08831288001F158C108A110A12272827
:1000C0002B30840083130008031974280130F800D2
:1000D000F701F70B6928F80B68284A30F700F70B8F
:1000E0006F287228800B6628080003081F398300D8
:1000F000A701A801A901193083169900A63098001C
:10010000903083129800FF30AA0083161F149F14AA
:100110001F159F1107309C0083131F109F101F1184
:100120009F111F1383121F139F1783169F13831290
:100130001F140030F80006389200FF30831692003A
:100140008C1483120B1683168C16C03083128B040A
:1001500083169F1783120830F8001F08C7397804E8
:100160009F000130831686000030880086108312BD
:1001700086108316061183120611831686118312C8
:1001800086118316061283120612831686128312B4
:1001900086128316061383120613831686138312A0
:1001A000861383168801831288011F15280BE02807
:1001B0000130A90029080C1EDB289900A901A8011B
:1001C000A708031D2C292A102A08831687008312EA
:1001D0000710AA102A0883168700831287102A1195
:1001E0002A0883168700831207112A112A0883160A
:1001F000870083120715C830AB0060202A112A0837
:100200008316870083120711C830AB006020AA1044
:100210002A088316870083128714C830AB00602039
:10022000AA102A088316870083128710C830AB00F3
:1002300060202A102A088316870083120714C8300A
:10024000AB0060202A102A0883168700831207104B
:10025000C830AB00602074292A102A088316870052
:1002600083120710AA102A088316870083128710AA
:100270002A112A0883168700831207112A102A08D8
:100280008316870083120714C830AB0060202A1041
:100290002A088316870083120710C830AB0060203D
:1002A000AA102A088316870083128714C830AB006F
:1002B0006020AA102A088316870083128710C8308E
:1002C000AB0060202A112A088316870083120715C5
:1002D000C830AB0060202A112A08831687008312D9
:0C02E0000711C830AB006020D628630076
:02400E00313F40
:00000001FF
;PIC16F877A
;CRC=0640  CREATED="27-abr.-20 22:20"
