:1000000001308A0033290000FF00030E8301A100A4
:100010000A08A0008A010408A2007708A300780853
:10002000A4007908A5007A08A600831383128C30F7
:100030008400801E1D288C1A3A288C308400001CF5
:1000400023280C183D288C308400801C29288C180B
:100050004028220884002308F7002408F800250817
:10006000F9002608FA0020088A00210E8300FF0EFE
:100070007F0E09008A110A1243288A110A128A285F
:100080008A110A12CD2883128C128C101A08AC0027
:100090002D0B4E28AD0A2C08AF0086282D08023CF7
:1000A000031D86280130AD002C08B0002F08463C07
:1000B000031D68283008453C031D6828B5309000B2
:1000C00083168C100C1483128E018F018E018628EA
:1000D0002F08453C031D7A283008443C031D7A282C
:1000E000FF30831686008312831688018312060868
:1000F000880086282F08463C031D86283008463C89
:10010000031D86280B138B138B1B83288C128A11DB
:100110000A12292883168C140C138312320B972889
:10012000B20A83168801831228088800C928320879
:10013000023C031DA228B20A8316880183122908F3
:100140008800C9283208033C031DAD28B20A831673
:10015000880183122A088800C9283208043C031D3C
:10016000B828B20A8316880183122B088800C92890
:100170003208053C031DC9280130B20083168801EE
:1001800083122C08880083168C140C10831283129F
:100190001F150C108A110A122928831609118312BF
:1001A000091583161E088312B1002E0BE328AE0A30
:1001B0000830F8001F08C73978049F0083123108FF
:1001C000A8001F151A292E08023C031DF328AE0AA9
:1001D0001030F8001F08C73978049F0083123108D7
:1001E000A9001F151A292E08033C031D0329AE0A76
:1001F0001830F8001F08C73978049F0083123108AF
:10020000AA001F151A292E08043C031D0D29AE0A49
:1002100083123108AB001F151A292E08053C031D57
:100220001A290130AE00FF308316860083120608BB
:10023000AC001F158C108A110A1229283330840053
:1002400083130008031932290130F800F701F70B76
:100250002729F80B26294A30F700F70B2D293029DA
:10026000800B2429080003081F398300A701A80177
:10027000A901AA01AB01AC010130AD00AE00AF0194
:10028000B001B101B200193083169900A630980070
:1002900090308312980083161F149F141F159F110E
:1002A00007309C0083131F109F141F119F111F13F1
:1002B00083121F139F1783169F1383121F1400307E
:1002C000F80006389200FF30831692008C148C16CA
:1002D000C03083128B0483169F1783120030F800FE
:1002E0001F08C73978049F00FF308316860000304E
:1002F000880009108910091188018312880183166A
:1003000009108910091183128901831609108312BB
:100310000914C830B3001E21831609108312091076
:0A032000C830B3001E2185296300D8
:02400E00313F40
:00000001FF
;PIC16F877A
;CRC=7239  CREATED="06-may.-20 22:24"
